:020000040000FA
:1000000000400020E5530100215401002354010069
:1000100000000000000000000000000000000000E0
:100020000000000000000000000000002554010056
:1000300000000000000000002754010029540100C6
:100040002B540100B1340100DD5D01002B5401008F
:100050002B54010000000000ED9701002B5401001B
:10006000C94700002B5401004D9401002B5401009E
:100070002B5401002B5401002B5401002B54010080
:100080002B540100C95A01002B5401002B540100CC
:100090002B540100719101004D91010011490000A4
:1000A000214900002B540100000000000000000066
:1000B0000000000000000000000000000000000040
:1000C00008B5054B054803331B1A062B03D9044B0F
:1000D000002B00D0984708BD2801002028010020EF
:1000E000000000000648074908B5091A8910CB0F1F
:1000F0005918491003D0044B002B00D0984708BD75
:1001000028010020280100200000000010B5074C45
:100110002378002B09D1FFF7D3FF054B002B02D02A
:10012000044800E000BF0123237010BD2801002017
:100130000000000070B1030008B5094B002B03D08C
:100140000848094900E000BF08480368002B02D1B5
:10015000FFF7C8FF08BD064B002BF9D09847F7E71B
:100160000000000070B103002C01002028010020D5
:1001700000000000144B002B00D1124B9D46402282
:1001800092029A1A924600218B460F461148124A53
:10019000121A2BF04AF80D4B002B00D098470C4B4D
:1001A000002B00D098470020002104000D000B48D0
:1001B0002AF014FF20F034FF2000290028F02BFD46
:1001C00020F07AFC00000800004000200000000041
:1001D0000000000028010020D82F0020D10D0200CF
:1001E000C4600561466187614146C161494601625B
:1001F00051464162594681626946C16271468160D9
:10020000124B1A6802601860002070470F4B1A6882
:1002100012681A6070470D4B1A68002A01D123F04A
:10022000A8F8506010681860D46815695669976915
:10023000D1698846116A8946516A8A46916A8B4615
:10024000D16A8D4691688E4601207047902E00201D
:10025000F0B587B0039205910D9A0399051C541AC5
:100260000CAA12782021101C884305D0302A05D012
:100270000CAA0292012204E0224A00E0224A0292E1
:100280001022019280221A4005D0E30F1B195B1047
:10029000E71A1C1C03E001210B4012D11F1C002C8B
:1002A00012DD261C019B04969E4200DD04936B68C0
:1002B00028680299049A9847049BF61A002EF1DCEC
:1002C00003E0271C141C00E00024039B002B06D035
:1002D0001A1C28686B6805999847039BE418002F3F
:1002E0000DDDE419019B3E1E9E4200DD1E1C2868A8
:1002F0000299321C6B689847BF1B002FF2DC201C50
:1003000007B0F0BD8724030076240300F0B593B056
:100310001F1C18AB10CB05901B780D1C161C0793E7
:10032000CB070BD48B0703D1814B0A689A4205D0C7
:10033000281C03F023FE01254000054381231C42B5
:1003400009D1079B302B06D11A9B1B9A934200DAE6
:100350001A9200231B93281C23F03BFD0AAA131CAE
:1003600000280DDDA30703D52B231370123B05E0F6
:10037000131C620704D520221A70192304AA9B18A3
:10038000E20618D5022E03D130221A707A1C10E032
:10039000082E08D130221A70A20501D401330AE0D8
:1003A0003A1C0E3205E0102E05D130221A703A1C8C
:1003B00017325A70023300220AA91A705B1A069388
:1003C000A30600D52C320EAB0B9310230C93002305
:1003D0001B990D93012901DD40210C4304A9CB7524
:1003E000FBB20096610614D500210293019103929D
:1003F0002B1C0BA80CA90DAA04F060F80378061CAE
:100400002D2B15D104AAD3750D9B0136013B0D93FD
:100410000EE00AA90191029303922B1C0BA80CA9D0
:100420000DAA04F04BF81B9B061C012B4BDC02E0D1
:100430001B9B012B6ADC00273D1C630621D517217D
:1004400004ABC9180B78002B0AD0002301220093BB
:1004500001920598FFF7FCFE1A9B2D18013B1A9399
:10046000069B002B0DD000230122009301920598DA
:10047000069A0AA9FFF7ECFE1A9B069A2D189B1AFA
:100480001A931B9B012B00DD1A93079B0598009381
:100490001A9B311C01930D9A231CFFF7D9FE2D18CE
:1004A000002F09D0202300220093019705982149AD
:1004B000131CFFF7CDFE2D180B980EAB984234D0CD
:1004C00023F052FC31E00D9A1B9B93421CDB1A9ADD
:1004D000934206DA0127D51A274004D02F1C0025A5
:1004E00001E000273D1C01239C43002D09D0002280
:1004F0001F330093019505980E49131CFFF7A8FEC2
:10050000051C3023079398E7131CE0E70D9A1B9B0B
:10051000934200DA131C172204A952181278511EB4
:100520008A419B18069A9B18D1E7281C13B0F0BD8E
:10053000E4C10200C92B0300F0B5071C00248DB0F4
:1005400005920D1C2B78002B09D18D420BD96E1A08
:100550003868321C7B689847A419291C03E0252BB6
:10056000F3D00135EEE70B78002B00D134E12023E6
:100570000026013109930B78002B12D02D2B01D1CD
:100580002C3B02E02B2B02D1293B1E430FE0202BFA
:1005900001D11C3BF9E7212B01D1193BF5E7302BA9
:1005A00002D00023069304E0402209931643013150
:1005B000E1E70B781A1C303A092A07D80A22069874
:1005C00001314243D318303B0693F2E708912E2BBA
:1005D00027D14B782A2B05D00B1C0133089300231D
:1005E00007930CE0089B02330893059B1D1D1B68B5
:1005F0000793DB43079ADB171A40079215E0089B25
:100600001B781A1C303A092A09D80A2207994A434A
:10061000D318303B0793089B01330893EFE7059D00
:1006200003E00123059D5B420793089B1B786C3B0D
:1006300059425941089B5B1808931B780493002B7F
:1006400000D1C9E0642B00D187E013D8502B00D132
:1006500091E004D8453B022B00D89CE0B2E0049B1B
:10066000622B1AD032D8582B00D0ABE02B1D05934B
:10067000412383E0049B712B34D005D8672B00D82D
:1006800089E0702B77D09DE0049B752B58D0782B98
:1006900071D0732B00D095E036E02B1D05932B68AD
:1006A000002B07D0099B381C0093069B4C490193F3
:1006B000042206E0381C0522099B4A490093069B48
:1006C0000193331CFFF7C4FD241882E02B1D059312
:1006D0002B680BA90B70099B381C0093069B012209
:1006E0000193EEE72B1D0BA92868059324F088FFE2
:1006F000079B011C013301D10B9B0793099B381CFD
:100700000093069B019311E02B1D2D680593002D8E
:100710000ED0079B013303D1281C2AF08BFE0790D3
:10072000381C291C099B0093069B0193079AC8E774
:10073000099B381C0093069B2B4901930622C0E7B6
:100740002B1D059361230093099B01960293069B41
:10075000381C0393296800220BE02B1D05936123AD
:10076000381C01220093099B01960293069B039378
:1007700029680A230CE02B1D059361230093099B34
:10078000381C0293069B00220393102301962968CC
:1007900022F04CF998E7072307359D432B1C286866
:1007A0006968083305931CF011F9099B011C00933B
:1007B000069B381C0193079B049A0293331C22F07A
:1007C000A4F981E73868089901227B6898470134C9
:1007D000059508990131B4E6201C0DB0F0BDC04666
:1007E00064240300692403006F24030010B5041C73
:1007F000082023F092FA024B4460036010BDC0460B
:1008000098B9020010B50B1C041C002906D0054A3B
:10081000096802609A6B002310F0A6FF201CFFF706
:10082000FAFCC04690FD0200F0B5041C87B00392AC
:1008300002936718002A0ED0023A222A0BD93D49AA
:100840003D4827F006FAFFF7E6FC20780BF0DEFAC9
:10085000002803D00134BC42F7D30AE023782B2BC5
:1008600001D1013405E0061C2D2B03D101340126F2
:1008700000E00026391B201C03AA22F01AFC2318D2
:100880001D1C00240093BD4210D22B78181C01932C
:100890000BF0D4FA039B002806D0019A2F3A9A4213
:1008A00002DC019B303B0DE0102B03D0002E19D051
:1008B000644217E02023019A13431A1C613A052A67
:1008C000F4D8573B201C0399019309F0A3FC00289E
:1008D0001AD1039B5C43019B1C196300634013D432
:1008E0000135D0E7012364001C43009B9D4216D0D4
:1008F000BD4206D228780BF089FA00280FD00135C6
:10090000F6E7BD4213D00AE0009B05A80593F91A4B
:10091000321C039B23F0A6FA059D041CE5E707495A
:100920000548039A10F0B2FE0299FFF76BFF201CF6
:1009300007B0F0BD9824030028F80200BB24030090
:10094000F0B5041C8BB00993431808920193019BE6
:100950009C4200D30EE120780BF058FA002801D019
:100960000134F4E723782B2B02D10134049005E005
:1009700004902D2B0ED12C3B01340493019B9C42FF
:1009800008D3824B002706930023251C07973E1CA3
:10099000039356E0202322781A43692A2ED1019925
:1009A000A21C914200D8BEE062781A436E2A00D0A1
:1009B000B9E0A2781A43662A00D0B4E0E21DE51C33
:1009C000914200D8A8E0E2781A43692A00D0A3E057
:1009D00022791A436E2A00D09EE062791A43692A6E
:1009E00000D099E0A2791A43742A00D094E0E27909
:1009F0001343792B00D08FE005358DE06E2AC0D1EE
:100A00000199A21C914200D88DE062781A43612AB4
:100A100000D088E0A27813436E2B00D083E0E51C61
:100A200000265B4F7BE06B1C02932B781A1C303A3C
:100A30000592092A30D8022E07D10A237B43D71802
:100A4000029D019B9D42EED354E0012E15D10598E5
:100A50001AF034F9069919F019FE011C039819F0DF
:100A6000A7FA039006981BF05DFF4A4A4A4B1BF019
:100A7000D3F81BF0ABFF0690E2E74849039819F062
:100A800005FE051C05981AF019F9011C281C19F01F
:100A90008FFA00260390D3E7002E02D12E2B02D12D
:100AA00026E0022E19D020221A43652A15D1029B76
:100AB000019A93420BD26B782B2B02D1AB1C029381
:100AC00005E02D2B03D1AB1C029301230793029B5E
:100AD000019A934247D00226B2E70026089AB24212
:100AE00009D0202213436A2B05D1029D013602E072
:100AF0000126A5E70026079B002B00D07F42381C6B
:100B00001AF094F8011C25481CF094FF011C03986E
:100B100019F0BCFD071C02E0FF270026FF05049B1F
:100B2000002B09D005E0049B002B1CD0251C0026BF
:100B3000002780231B06FF18A54214D0019B9D426D
:100B400006D228780BF062F900280CD00135F5E7C1
:100B5000019B9D4207D1002E02D1099B002B0CD096
:100B60000F48104901E00E480F4927F072F810991C
:100B7000FFF748FE0023049303E7032302209F436B
:100B80000A4B0743F8180BB0F0BDC046CDCCCC3DA6
:100B90000000C07F9A9999999999B93F0000204126
:100BA00028F80200E32403000025030000008080F1
:100BB00073B501A901F01EFC019B061C502B02D944
:100BC000184819491CE08020400023F0A6F8174C73
:100BD000051C231C883318600023019A934203D01C
:100BE000F15CE9540133F9E75B22281CEA5402F076
:100BF00013FE2B1C002807D1883420600C490948BB
:100C000027F027F8FFF707FB5A1B0133591E097815
:100C10009B29F9D1291C074822F000F900238834C8
:100C2000236076BD28F802001A250300882E0020D4
:100C3000292503001CC00200F0B58BB0061C10A8CB
:100C40000778364805AD00900195081C111C1A1C48
:100C500005230CF0ADFB9120000123F05EF8304B32
:100C6000304A1860059B476043702B7904A90370D4
:100C70002B7A041C83702B7BC3702B7C301C13607D
:100C800001F0B8FB0025284B071C0C201D6023F049
:100C900044F8264B061C036013F0ECFCB06013F024
:100CA000E9FC234B23491860234B70601D70234BD4
:100CB000301C1D70224B0A1C1D602B1C13F0E8FB1E
:100CC000201C391C049A25F092FC201C0DF0B6FD66
:100CD0001C4B071E0393134E194D164C0AD113F0EB
:100CE000FBFA0F4B18481F60184B196826F0B1FF2C
:100CF000FFF791FA0122164B1A7013F0B5FC002889
:100D0000FBD1039B883318603368002B03D0114854
:100D1000296820F049FE201C0BB0F0BDE0B90200AC
:100D2000102F0020482700204C0100201CBA020090
:100D30004801002044C20200F72D0020F82D0020B9
:100D400050010020882E002028F802001C000020FE
:100D5000F62D00204025030000220D4910B50B7828
:100D6000DBB2934212D10B4A1478002C02D001243A
:100D70000C701370084B1B78002B06D0074A1368C1
:100D800020331360064B1A6800E08268101C10BD07
:100D9000F82D0020F62D0020F72D00204C0100201A
:100DA00048010020D2235B005843134A30B5136832
:100DB000000C834206D9114C236801332360136869
:100DC000203B13601F23051C14689D43A54203D9D3
:100DD00001240B4B1C70F5E703401A1D202A00D993
:100DE0002022084C2468934203D2E518297101336C
:100DF000F9E7054B186030BD4C0100205001002080
:100E0000F72D00204801002044010020F0B545687E
:100E100087B00393AB6805A80F1C0292059322F0DC
:100E200073FB061C05A822F06FFB0323321C5843FA
:100E300009321018800022F070FF041C094BAA68C8
:100E400003606B68291C4360059B06629B1AC360A4
:100E5000039B083000933A1C029B04F0A5F9201C68
:100E600007B0F0BD08BB020038B5051C88680C1C33
:100E700024F0B8F90349021C231C281C21F094FE1D
:100E800038BDC0464F25030010B5041C082022F0D1
:100E900044FF024B4460036010BDC046C0BA02006C
:100EA000F8B5041CC0680E1C002801D118602FE0A2
:100EB000201C111C626920301D1C824208D1154A79
:100EC000964206D01449154826F0C3FEFFF7A3F951
:100ED0001660201C124E636808307768736007F054
:100EE0008DFC7760012806D00023E360022809D03A
:100EF00063691B680BE063691B682B60002B07D1DB
:100F0000E36005E0236A07339B00E41863682B6005
:100F1000F8BDC04644C202006D25030018FD020062
:100F2000882E002013B501AB141CFFF7B9FF012870
:100F30000DD0184C02281CD0019BA34228D0002BB6
:100F400026D0012101AA144826F070FE0DE0002CE5
:100F50000DD0201C02F028FF10490CF073FF002870
:100F600005D00F480F4926F074FEFFF754F9019899
:100F70000FE0019802F018FF07490CF063FF00280A
:100F800001D10198F1E7019810F060FBA042F8D17F
:100F9000002016BD44C20200D4FA0200CCFD0200BB
:100FA00064F80200A325030010B50C1C022801D12F
:100FB000486800E088680CF0D9F80649021C2068EF
:100FC000FFF7B0FF002804D1034826F035FEFFF7F5
:100FD00022F910BD44C20200D4FA020008B5002272
:100FE000FFF7A0FF002804D1024826F025FEFFF7F6
:100FF00012F908BDD4FA020008B502490022FFF731
:1010000091FF08BD44C2020013B5124C124A211CC4
:1010100001ABFFF745FF012802D0022805D017E0F9
:101020000E490F4826F015FE10E0019802F0BCFEB4
:101030000C490CF007FF00280AD1019802F0B4FE19
:1010400009490CF0FFFE002802D10198FFF7E3F8F0
:10105000201C16BD44C20200E4F80200A3250300D0
:1010600064F80200CCFD0200D4FA020010B5041CA2
:101070000C2022F052FE034B4460036002230372F3
:1010800010BDC04674BD020010B5041C102022F033
:1010900044FE044B0360237A03716368836000237A
:1010A000C36010BD0CBD020010B5041C102022F05E
:1010B00034FE044B84600360034B43600023C36031
:1010C00010BDC04684BB0200432C020008B50430AA
:1010D00022F0F3FF004808BD44C20200F8B5041C2A
:1010E0000D1C0B7A124A9B00995821F091FC114972
:1010F000201C21F08DFC281CFFF7C6FF0126071CD1
:10110000381C21F0A8FD051E0CD0002E03D1201C98
:10111000094921F07DFC201C291C012202F05EFE01
:101120000026EDE7201C054921F072FCF8BDC04601
:10113000CCBB0200C3250300C6250300C92503005C
:10114000F7B50B681C4A041C0D1C934203D01B49C5
:101150005A6821F029FD201C194921F059FC00236F
:1011600001270193281C01A921F056FD061E15D068
:10117000002F03D1201C134921F04AFC0122201C1E
:10118000316802F02BFE1049201C21F041FC201C8C
:101190007168012202F022FE0027E3E7201C0B49C0
:1011A00021F036FC2B68044A934203D0201C0849E6
:1011B00021F02EFCF7BDC0462CBC0200CC2503005C
:1011C000D0250300C6250300D19003006B4903001E
:1011D0001D400300002806D001280BD14B68DB0816
:1011E0005B00184307E007224B680348934302D192
:1011F000024800E00020704770C10200B4C1020044
:1012000038B5151C1A1C1C1C07F012F9002802D056
:101210004368002B0ED12B1E08D1094B022C05D19F
:101220000849094826F015FDFEF7F5FF012C05D108
:10123000436003E0022C01D100224260181C38BD3B
:1012400044C20200D225030008FE020030B500258A
:1012500085B001A9041C019521F0DEFCA84205D14E
:101260000A490B4826F0F5FCFEF7D5FF636802A992
:10127000083B63600368029343680393042328C018
:10128000022010F05FF805B030BDC046DA2503003B
:1012900008FE020073B50C1C151C1B280BD0002384
:1012A0001F2839D1081D111C002207F0C1F81B4B63
:1012B000002831D118E00323194208D10A681849DF
:1012C0008A4204D12B4002D12968914224D0154B87
:1012D000AA0721D1144A296891421DD162686B681E
:1012E00053400722934301D00E4B15E00193201C7D
:1012F00001A921F091FC061E0DD0281D31680022A5
:1013000007F096F8031EEFD07068596802F0E4FD0C
:101310000028ECD1E8E7014B181C76BD70C1020033
:10132000F0BB0200B4C102002CBC0200F0B513688F
:10133000141C012287B00F680D1C0092D9080223EB
:10134000061C0CF003F8022E22D103236868034028
:1013500016D10268D1682C4A914211D12A68904274
:1013600016D00593686805A921F056FC061E0FD01B
:10137000381D3168012207F05BF873684360F1E7BC
:101380000BF02CFA039003980BF076FA002801D1A9
:10139000002526E00BF022FA051C0BF06DFA0290F6
:1013A000281C0BF069FA061C281C0BF065FA029B3E
:1013B000002B03D0002E01D0002805D0134914487B
:1013C00026F047FCFEF727FF381D0299012207F09F
:1013D0002FF84660D7E7A368EE009959002904D199
:1013E000013563689D42F6D30AE00429F8D0381D20
:1013F000012207F01DF8A3689E1973684360EFE7A8
:10140000044807B0F0BDC046CD140000F925030024
:1014100028F8020044C2020010B5041C0C2022F07F
:101420007CFC034B446003600023037210BDC04684
:1014300074BD020010B5041C0C2022F06EFC034B9E
:10144000446003600123037210BDC04674BD0200F6
:1014500008B50430002206F0EBFF002805D104494E
:10146000044826F0F6FBFEF7D6FE406808BDC046ED
:10147000D225030008FE020008B5024B08C022F086
:10148000FDFD08BD2CBC0200F8B5071C48680E1C09
:101490000BF0A4F9041C02F08DFE0B4D022F00D9B5
:1014A000B568002800D0401021F029FC061C201C43
:1014B0000BF0E2F9011E05D0301D012206F0B8FF45
:1014C0004560F4E7301CF8BD44C20200F0B5071CCB
:1014D00089B000201E1C0D1C019221F010FC0E4B47
:1014E000041C07609F4203D1042203791343037154
:1014F000019B2B430DD03368AA00B21805A80199AF
:101500000394049322F0CCFD681C03A905AAFFF7FD
:101510000DFF201C09B0F0BDF0BB020008B5002A89
:1015200002D121F02FFC11E0042A0DD10430002259
:1015300006F07EFF002805D10549064826F089FB04
:10154000FEF769FE406802E021F012FC024808BD87
:10155000D225030008FE020044C2020070B5061C3A
:10156000081C25F033F9051C25F006FA041E06D1E7
:1015700008492A1C084810F089F8FEF74CFE301C78
:1015800022F0F6FB031C0121201C1A1C0BF08AFE22
:1015900070BDC0464A260300D0FB020010B5041CF3
:1015A00025F014F921F0D8FE031C012083420CD051
:1015B0000649201C25F026F9201C25F007F921F00A
:1015C000CBFE023843425841400010BD9B26030029
:1015D000F0B59DB000AF0C68032807D9CB68002593
:1015E000FB60042805D00D696D1002E00025A24BB8
:1015F000FB601C23201CF91800F0FCFE7861002D14
:1016000056D09E4C6E216068FFF722FF061C606872
:1016100096210022043006F00BFF1823FA18D11887
:10162000041C301C00F0E6FE3B6B011C013DC018A1
:10163000002C0CD188420AD9013803782E2BF9D11D
:1016400005E0884203D9013803782E2BF9D1013DFA
:10165000F7D2FE69441A251C002E01D0751C2D19E5
:101660002B1C6A460E33DB08DB00D31A9D46181C80
:10167000221C3B6129F0BCFD002E08D02E233A69C4
:101680007969135501341019321C29F0B1FD3869FC
:10169000291C09F00FFF012804D17949794826F067
:1016A000D8FA5FE006243B69C0000443FD617B611A
:1016B000201C00F009FA06F027F8051E15D02E218F
:1016C000786929F09FFE011C281C002900D1D0E078
:1016D000694BFA689A4200D0CBE07B69C91A181CA2
:1016E00009F0E8FE06F010F8C3E018220823BA1843
:1016F000D0181033FA184021D21825F00CF8012622
:10170000BD603D612C1C04E07B699B5D2E2B05D0E8
:101710000136FB699E4200D9A5E0F5D1311C7869FC
:1017200009F0C8FE18220823BA183860D01825F02E
:101730001BF818220823BA18002815D1D018321C1B
:10174000796924F0A8FF18220823BA18D018FFF7E7
:1017500025FF78607B68002B13D14A484A493A68D4
:101760000FF094FFFEF757FDD0182F210DF0D6F89B
:101770007B693A691820991808233818B21AC018DA
:10178000DFE7386805F0C0FF041E57D1386805F060
:1017900081FFFB69041C9E4208D13C4BFA689A42C7
:1017A00004D180686E215E2221F0E2FA7B68012B71
:1017B0003DD118220733BA18D01824F0CEFF1822D2
:1017C0000823BA187860D01824F0CEFF0022011C3C
:1017D000786800F057F91221021C201C0AF0DAFF89
:1017E00018220823BA18D0182F210DF097F81822C4
:1017F0000823BA18D018264925F004F8182208231F
:10180000BA18D01824F0E2FF21F0A6FD022806D174
:1018100018220823BA18201CD118FFF79FFE18229F
:101820000823BA18D0180C2125F02BF806E018224E
:101830000823BA18201CD118FFF790FE002D0AD0FB
:101840003A697B69B11A981809F034FE221C011C10
:10185000281C0AF09FFFBB68002B00D1BC60731CE2
:101860003B61251C54E7044BFA68201C9A4200D1C6
:10187000B868BD461DB0F0BD44C20200882E0020ED
:101880005F260300D0FB02007E260300B4C10200E5
:1018900093260300032210B502400121002A04D13F
:1018A0000A4C03688C46A3420ED00B1C03409C4696
:1018B00008D1002A08D1036805481B1A5A425A4128
:1018C000944601E001239C46604610BD78C10200A9
:1018D000E4C1020010B5041CFFF7DCFF012300285F
:1018E00009D10322031C2240022A04D1034B2340C6
:1018F000063B581E83410120184010BD070080FFA1
:1019000008B521F04DFC0349021C03480FF0BEFE50
:10191000FEF781FC9F26030018FD020010B5041C91
:10192000102022F0FAF9044B84600360034B4360FB
:101930000023C36010BDC04684BB02008D3002008E
:10194000F7B50E1C0193041C8B180A1C0021009390
:10195000009B9A420ED21378272B04D0223B584288
:101960004341DBB201E0002301210132002BEFD023
:10197000272503E02725002900D0053D1F4F201C07
:10198000391C2A1C21F010F9009B9E422FD232787C
:10199000AA4203D1201C1A492A1C24E05C2A02D145
:1019A000201C18491AE01F2A0AD97F2A19D0019B46
:1019B000002B02D053B2002B0CDB201C391C12E090
:1019C0000A2A02D1201C104908E00D2A02D1201C4D
:1019D0000E4903E0092A04D1201C0D4921F018F812
:1019E00003E0201C0B4921F0DFF80136CCE7391C5D
:1019F0002A1C201C21F0D8F8F7BDC046CC260300D5
:101A0000CB260300CF260300D2260300D5260300F1
:101A1000D8260300DB260300194B70B5061C0D1CED
:101A200098420ED18868496809F00EFD041E08D05E
:101A3000281C24F07BFE00230620E4002B602043BA
:101A40001DE0102022F069F96968041C81600660BD
:101A5000A86809F0DBFC6B686060591C2B68994230
:101A600002D1AB68E36003E0A86822F06CF9E060A3
:101A70000023201CE268A1685354AB602B6070BD4A
:101A80001CC0020038B5051C0C1C002A02D009F04D
:101A900011FD03E009F0D8FC002803D00623C000A4
:101AA000184304E00248291C221C21F0B7F938BD74
:101AB0001CC0020008B5031C0A1C0248191C21F0B6
:101AC000ADF908BDD4BF020008B50B4B0340062B8F
:101AD00001D1C0080EE0031C820708D1074A016843
:101AE000914204D19968C06809F0E4FC02E0181C36
:101AF000FFF706FF08BDC046070080FF1CC00200BC
:101B000008B5064B0340062B03D1C00823F078FD2F
:101B100002E08368C0680B6008BDC046070080FF14
:101B2000F0B5002689B0051C0F1C081C1C1C111CDC
:101B30000096321C03230BF009FC0E20B74237D06D
:101B4000012F0ED104A802AA10210CF0DBFE02A87E
:101B50002168321C02F042F9281C04A9FFF75CFF3F
:101B600026E0206804A983071AD1124B02689A4222
:101B700016D1FFF7C5FF104B061C20680340062B4B
:101B800004D1C00823F02DFD041C00E0446810209F
:101B9000049F22F0C2F805608760C660446007E0D9
:101BA000012202F0ABFB049805990022FFF76AFFBF
:101BB00009B0F0BDD4BF0200070080FFF0B58BB0C4
:101BC000049008680D1C0692079302F0EDF8041CBF
:101BD000686802F0E9F8061EA64202D06868FFF7BE
:101BE0008FFE08A92868FFF78BFF041C09A9686805
:101BF000FFF786FF089A0590A3180393049B271C00
:101C0000022B19D9AB681F498B4206D00121301C29
:101C10000091211C01F070FB071C049B032B0BD0CF
:101C2000EB68184A934207D00122301C0092211C15
:101C3000089A01F061FB0390039B381CD91B069B9B
:101C4000059A0093099B21F0CAF8011E0AD10120D0
:101C5000079B4042002B12D00B490C4825F0F9FF9E
:101C6000FEF7D9FA0A4B9E4205D1201C24F099FABE
:101C70000121400002E0001B4100012008430BB09D
:101C8000F0BDC04644C20200E226030028F802006C
:101C90001CC00200F0B58DB0041C039102F084F862
:101CA00004A9061C201CFFF72BFF01900398830753
:101CB0000BD10368314A934204D105A906AA25F045
:101CC000ACFF10E02E4A934208D02D480121C36892
:101CD00000220293029C03ABA0470390039805A93E
:101CE00006AA21F0A5FF0024251C059B9C421ED2BC
:101CF000069BA700D85902F057F8B04205D02149F9
:101D0000214825F0A6FFFEF786FA002C01D0049B9F
:101D1000ED18069BD8591D4B0340062B03D1C00874
:101D200023F064FC00E080682D180134DDE7291CF5
:101D3000002508A824F0E7FC0A9C059B9D4217D2C9
:101D4000002D06D0201C0199049A29F051FA049B19
:101D5000E418069AAB00985807A9FFF7D1FE079A36
:101D6000011C201C29F044FA079B0135E418E4E724
:101D7000301C08A9FFF750FE0DB0F0BD80F702003F
:101D800088CA0200F626030018FD0200070080FF43
:101D9000F0B5071C87B008680D1C02F005F804A90F
:101DA000061C2868FFF7ACFE05A9041C6868FFF74D
:101DB000A7FE0390201C022F07D90123301C00939B
:101DC000211C049AAB6801F097FA059A041B049948
:101DD000A418064B8C4206D8039929F0FAF9044B53
:101DE000002800D0014B181C07B0F0BDB4C10200A0
:101DF00070C1020073B50D1C061C08686946FFF728
:101E00007FFE01A9041C6868FFF77AFE011C022E00
:101E100002D908480BF090FA019A009B06489A42B2
:101E200007D8981A201829F0D4F9031E034800D0C7
:101E3000014876BD3B270300B4C1020070C1020017
:101E4000F0B58FB0079010680C1C171C01F0ACFFA8
:101E50000690012C10D0786801F0A6FF069B9842EE
:101E600002D07868FFF74CFD78680DA9FFF748FEAF
:101E70000D9B0890099303E0072309932C4B0893CB
:101E800038680DA9FFF73CFE0D9B0B900493079B50
:101E9000012B05D1049B5D1E01235B420A9302E0E6
:101EA000012300250A930024261C049B0394059318
:101EB000059B002B22D00B9B08985A1901230999E6
:101EC000009320F08CFF002812D1039B002B0ED131
:101ED000079B002B03D1049B2E1C5D1E19E0079B62
:101EE000012B15D001232C1C2E1C039300E02C1C6D
:101EF0000A9BED18059B013B0593D9E7039B002B3B
:101F000008D10C4B069A0E209A420FD00A480DE0D9
:101F1000039E2C1C049B0134A21B9A4201D13868F9
:101F200004E00B9B0698991920F078FF0FB0F0BDE4
:101F30003F2B03001CC00200E0BD0200F0B589B0D9
:101F4000049008680D1C01F02FFF041C686801F064
:101F50002BFF071EA74202D06868FFF7D1FC06A935
:101F60002868FFF7CDFD061C07A96868FFF7C8FDC4
:101F7000069A0590B3180393049B341C022B19D9BD
:101F8000AB681F498B4206D00121381C0091311CDF
:101F900001F0B2F9041C049B032B0BD0EB68184A28
:101FA000934207D00122381C0092311C069A01F09E
:101FB000A3F90390079B0025002B10D1039B201C45
:101FC000191B24F0FDF801304000012514E0201C0D
:101FD000059929F0FEF8002807D10135341C079A2D
:101FE000039BA6189E42F2D904E0201C24F0D2F8EC
:101FF000061CF3E701206D00284309B0F0BDC04680
:1020000044C20200F0B58BB00E1C071C039201F015
:10201000CBFE041C301C01F0C7FE844202D0301CF1
:10202000FFF76EFC05A9381CFFF76AFD06A9051C21
:10203000301CFFF765FD069B021C002B05D11A49D9
:102040001A4825F006FEFEF7E6F819498C4201D140
:102050000E2100E017490791089109910399002981
:1020600001DD079700E009970399281C0091059965
:1020700020F0B5FE002811D0471B3A1C291C201C5B
:1020800020F0CCFE069A059BB918DF1B0790691853
:10209000BA1A201C089620F0C1FE099007A9032057
:1020A0000FF050F90BB0F0BD4D27030028F80200E7
:1020B0001CC00200E0BD020008B5011C014820F070
:1020C000C4FF08BDE161020008B5011C014820F011
:1020D000BCFF08BDF5610200F7B5061C081C01A98C
:1020E000FFF70EFD019B051C002B01D1144826E0D3
:1020F000144B041C9E4201D1002712E0124B9E4259
:10210000FAD0019A631B934218D22078B047013469
:102110000028F6D1EAE7207809F084FE002805D1EE
:102120000134019A631B9342F5D305E02078B04750
:102130000028DBD00127F3E7002FD7D00348FEBDEE
:10214000B4C102008DBE0000A5BE000070C1020037
:1021500008B5011C0148FFF7BFFF08BD0DBE000018
:1021600008B5011C0148FFF7B7FF08BD25BE0000F8
:1021700008B5011C0148FFF7AFFF08BD3DBE0000D8
:1021800008B5011C0148FFF7A7FF08BD8DBE000080
:1021900008B5011C0148FFF79FFF08BDA5BE000060
:1021A000F0B585B0041C0D1C171C01F0FDFD69463F
:1021B000061C201CFFF7A4FC041C042F22D1AB0733
:1021C00015D1124B2A689A4211D10098291C01AAF4
:1021D00009F03AFA002802D10D480BF0ADF8019B46
:1021E000029AE118D21A301C20F018FE0BE00023EE
:1021F000301C00992A1C01F099FF0123205C40004B
:10220000184300E0002005B0F0BDC04628C1020020
:102210005D27030070B58AB000296BD018681C1CBC
:10222000031C364D2B40062B05D083071ED1344BA3
:1022300002689A421AD10239012955D806A9FFF736
:102240005FFC061C20680540062D04D1C00823F061
:10225000C8F9041C00E044681020069D21F05DFDD3
:10226000284B85600360C660446044E001293BD888
:10227000012210420CD04410211C06A824F043FA7D
:10228000089B0021181C221C019328F0CEFF26E099
:1022900003A920F09BFF002805D00399049A194850
:1022A00020F0BCFD27E0206801F084FF002802D167
:1022B00006A8102101E0411006A824F00DFA2068BC
:1022C0000AF08CFA041C201C0AF0D6FA002806D06A
:1022D00001F054FEC1B206A824F08BFAF3E706A978
:1022E0000848FFF799FB06E00749084825F0B1FCCC
:1022F000FDF791FF06480AB070BDC046070080FF99
:102300001CC00200D4BF02008E27030018FD02008B
:10231000E0BD020073B5041C081C01A9161CFFF7E0
:10232000EFFB051C201C042E05D10849019A2B1C2B
:1023300020F03AFC08E0064920F06AFB201C291C2A
:10234000019A0123FFF7FCFA73BDC046A8270300DA
:102350009A730300F7B5021C1A4B051C0C1C1A409B
:102360001E1C062A08D10B40401A062B26D0E8086E
:1023700023F037F9071C00E047682640062E03D1FA
:10238000E00823F02EF900E06068002F05D0002857
:1023900003D0874201D0002013E0281C6946FFF7D4
:1023A000AFFB01A9051C201CFFF7AAFB009A019BAB
:1023B000011C9A42EFD1281C28F00BFF44426041D7
:1023C000C0B2FEBD070080FF084B07B50340062BD7
:1023D00008D0830704D103689A69054B9A4201D05B
:1023E000FFF78EFA01A9FFF78BFB0EBD070080FFF8
:1023F000D52900000A4B13B503400C1C062B08D04E
:10240000830704D103689A69064B9A4201D0FFF70B
:1024100077FA01A9FFF774FB019B236016BDC04644
:10242000070080FFD5290000F0B59BB00B900C1C75
:10243000079212A810210EAA09930CF063FA079BC9
:102440009C4200D3ACE221787D2909D1079B671C0F
:102450009F4202D261787D2910D0BE48BE493EE03D
:102460007B2904D012A824F0C4F9271C87E2079B1B
:10247000671C9F4254D261787B2903D112A824F0B3
:10248000B8F97CE27D2916D0212914D03D1C3A29C7
:1024900011D02B787D2B08D0212B06D03A2B04D0DD
:1024A000079B01359D42F4D140E0079B9D423DD200
:1024B0003C1C2F1C01E000252C1C3B78212B12D149
:1024C000079A7B1C9A4208D97E78331C723B012BF9
:1024D00003D8BB1C934208D328E09E489F4925F0AF
:1024E000B8FBFDF798FE3B1C00261A7800273A2A15
:1024F00000D048E25F1C5B787D2B14D03B1C393A3E
:1025000007998B4212D219787B2901D1013205E05B
:102510007D2903D1013A002A00D134E20133EFE7EB
:102520000026351C341C079B9F4202D389488C49E6
:10253000D5E7002305933B787D2B02D08548894958
:10254000CDE7002C47D000232078169309F076FCC5
:10255000211C002822D0099B1B680493002B02DD5C
:102560007C488149BBE716AA201C291C20F01FFCCF
:10257000209A169B013A0690934237D2219A013352
:102580009B009B58099A049301235B4213601CE053
:102590000B782E2B04D05B2B02D00131A942F7D34C
:1025A0000691201C091B0122FFF76CFA041C002273
:1025B0002298211C05F03CFF002804D1211C6B4807
:1025C00025F040FB8DE743680493069BAB4217D28E
:1025D00067480AF0B1FE099B1B68002B02DA5D48D0
:1025E00064497CE7209A013A934202D362486349E6
:1025F00075E7013321999A0052580492099A1360A1
:10260000059B002B03D1002E00D1BAE101E0002E82
:1026100012D016A8102110AA0CF074F9321C733ACB
:10262000531E9A4110A8D2B2049901F0D7FB544826
:1026300016A9FFF7F1F9049001235B420D93109363
:10264000059B002B00D1A3E00FF08EFC209B16A869
:102650000093219B05990193229B3A1C0293099BAD
:10266000FFF7E2FE16A824F0B1F8179B0678C3180E
:102670000A930023041C05939E4216D0414D311C41
:10268000281C28F0BFFE002800D07FE16378059366
:10269000002B09D0281C191C28F0B4FE002800D0FB
:1026A00078E10590061C00E0059E237808932B2B0B
:1026B00005D02D2B05D00425202B05D102E00225C5
:1026C00000E00025013401E0002508952378232B44
:1026D00002D1133B1D4301342378302B07D1059BD6
:1026E000002B01D13D330593002E00D13036201C44
:1026F0000A990DAA20F05BFB037806902C2B04D1DD
:102700000C3B1D43031C01330693069B1B782E2BA9
:1027100006D106980A99013010AA20F048FB0690CD
:10272000069B1C78002C07D01748211C28F06AFE55
:10273000002800D030E1041C069B1B78002B02D03F
:1027400004481249CBE616A823F0F0FF059B002BA6
:102750002BD121E028F80200AD270300D527030084
:10276000EE270300062803002A28030008FE0200C3
:102770008D280300AA28030084F9020074280300AE
:102780001CC00200F4280300F928030009290300F3
:10279000059D2C1C2E1C08950498FFF79BF83E23E2
:1027A0000593002801D1023B0593002E00D120366D
:1027B000089B002B09D0732C02D17E487E498EE6FF
:1027C000632C02D17B487D4989E6059B3D2B05D0D2
:1027D0005E2B05D03C2B05D13B3B02E0402300E0C3
:1027E00080231D430498FFF755F800285FD0632C21
:1027F00023D016D8472C06D8452C58D2002C27D0E9
:10280000252C54D04CE0582C3CD0622C48D10D9B48
:10281000009502930023019603930EA804990222C7
:102820002EE0672C02D8652C12D340E06F2C19D013
:10283000782C27D06E2C33D10AE0049801F09EFB4F
:102840000D9B16A908700122009601930EA889E03D
:102850000D9B009502930023019603930EA8049903
:102860000A220DE0EB0602D580239B001D430D9B41
:1028700008220293002304990095019603930EA861
:1028800061330AE00D9A231C0292002204990392FC
:10289000173B009501960EA81032FDF737FD6EE04C
:1028A000049820F07DFC4649031C424863E00498EC
:1028B000FFF710F8002838D0002C1FD06E2C1DD048
:1028C000472C15D8452C1AD2252C27D1049801F075
:1028D000B9FB3C4917F0DAFE80230D9A5B000192A8
:1028E000109A011C02922B4300960EA8662212E059
:1028F000231C653BDBB2022B10D800E06724049850
:1029000001F0A0FB0D9B221C0193109B011C029364
:102910002B1C00960EA820F0F8F830E0049820F068
:102920003FFC2949031C234825E0059B3D2B02D190
:1029300020482649D3E50498002C01D0732C15D1EA
:1029400016A9FFF757FD109B011C169A002B00DA01
:102950001092109B9A4200D916930D9B169A0096DE
:1029600001930EA82B1CFDF773FC08E020F018FC67
:102970001749031C0F48221C0EF088FEB1E57C1C91
:102980005DE5732645E605971F1CD4E505960134E1
:1029900000268AE6023488E6069B01330693CBE6DE
:1029A0000B9A12AB13CB13C21B6813600B981BB0AE
:1029B000F0BDC04628F80200222903004E2903007A
:1029C000812903000000C842B2290300E629030060
:1029D0001B2A0300F0B5A1B0041C0D1C0D920A289F
:1029E00000D0E6E1073C0692144010D11368B94AC2
:1029F000934206D1069810A90FAA25F00EF9069465
:102A00000BE0B54A934202D10F94109405E00DAB50
:102A10000F930123109300230693109B281C089307
:102A20000F9B11A90A93FFF76BF800230B900C93EF
:102A3000AB0705D1A94A2B689B1A5A425A410C92FE
:102A400014AA18A810210BF05DFF119A00279446D4
:102A50000B9B0B9C63440593059B9C4200D39BE11D
:102A60002178252903D018A823F0C3FE92E1059B05
:102A7000661C9E4202D39A489A4916E0617825293D
:102A800004D118A823F0B5FE341C83E100252829C1
:102A900019D1A01C061C00E001363378292B08D080
:102AA000059B9E42F8D38E488F4925F0D2F8FDF75A
:102AB000B2FB311A0122FEF7E5FF011C0698FEF772
:102AC000C7FC051C01360023341C00260993203363
:102AD0000793059B9C4211D223782D2B01D12C3BCF
:102AE00006E02B2B01D1293B02E0202B02D11C3B1D
:102AF0001E430FE0232B0BD0302B05D00023129365
:102B0000059B9C4208D320E040220793164301E036
:102B1000102309930134DCE723782A2B0FD1089A7C
:102B20003B1E934202D371487149BEE70A9A9B004B
:102B3000985801F023FA01371290013405E0201C67
:102B4000059912AA20F033F9041C01235B42139368
:102B5000059B9C428FD223782E2B1ED1059B601C97
:102B6000984288D263782A2B0CD1089A3B1E934254
:102B7000D9D20A9A9B00985801F000FA01371390B5
:102B8000023406E00023059913AA139320F00FF9ED
:102B9000041C059B9C4200D36DE7002D07D1089AC9
:102BA0003B1E9342BFD20A9A9B009D58013723785F
:102BB000672B0FD8652B6AD2582B00D1D1E004D8EF
:102BC0001A1C453A022A62D9DBE0632B12D0642B2F
:102BD00042D0D6E0732B07D8722B00D392E0692B3A
:102BE0003AD06F2B63D0CCE0752B35D0782B00D149
:102BF000B7E0C6E03F4B2B40062B05D0AB0714D106
:102C00003D4B2A689A4210D11CA9281CFFF7F2FB01
:102C10001C9A011C012A02D03448384945E7202378
:102C20000093129B14A801930FE0281CFEF732FEBC
:102C300000280ED0281C01F0A1F9202301221CA994
:102C400008700093129B14A80193331CFDF700FB3E
:102C5000A0E026482A4928E703222B1C291C134000
:102C6000022B0AD1234B2B40062B06D0FF23DB057A
:102C7000E818904304F0DAFD011C079B00960193CD
:102C8000129B14A80293139B0A2203931FE0281C93
:102C900001F0D8F9079B22780093129B011C019345
:102CA000139B14A80293331C1FF02FFF72E0099BA3
:102CB000002B02D084239B001E43291C0822079B63
:102CC00000960193129B14A80293139B0393612314
:102CD00054E0C04680F702002CBC0200D4BF0200C2
:102CE00028F802004D2A03005F2A030018FD0200A5
:102CF000752A0300070080FF1CC002009C2A030005
:102D0000B52A030016AA1CA810210BF0FBFD23789E
:102D10000122722B0BD000220C9B934207D0AB07F1
:102D200005D12B68644A9A1A514251418A0016A86B
:102D3000291C01F053F8139A1D9B002A00DA139303
:102D4000139A9A4200D91A1C20230093129B14A8AC
:102D500001931E99331CFDF77BFA1CA823F0E6FCB7
:102D600018E0099A291C1643079A173B0192129AF8
:102D700000960292139A14A803921022FDF7C6FA45
:102D800008E00B9A4D49A41A00941A1C4C480EF006
:102D90007DFC8CE601345FE6089B9F4202D04948E7
:102DA000494982E60C9B4448002B00D1474818A9AA
:102DB0006EE0081C00F0F8FF16A9061C281CFEF7A0
:102DC0009FFE071C0D98072C1DD118A901F014F9BE
:102DD0000025A8426DD01899A94205DC3B4B0E3561
:102DE0009E4266D03A4D64E0169B1CA8594323F0DE
:102DF0008AFC1E9B381C059300930121169A189B90
:102E000022F006FC42E000F0CFFF864206D10D988A
:102E10001CA9FEF775FE1C9D05900DE0264B0025B4
:102E20009E4246D10D981CA9012220F0CFF9A8425C
:102E30003FD01C9B1D9D05931D2C06D8192C2BD211
:102E4000052C0DD0122C0BD032E01F2C30D10123D9
:102E5000381C00931699059A2B1C1FF0C0FF22E026
:102E6000169B1CA8E91823F04EFC1E9B391C181C4D
:102E7000169A069328F0BCF9169A1E9B9446069360
:102E80006344181C05992A1C28F0B2F9301C1CA9AF
:102E9000FEF7C2FD051C0CE00095201C391C169A9B
:102EA000059B22F0E9FB0B4D002802D10A4D00E002
:102EB0000025281C21B0F0BDD4BF0200C62A0300A3
:102EC00028F8020018FD0200FB2A03001CC00200C3
:102ED000E0BD020070C10200B4C1020070B58AB04A
:102EE000061C0C1C086804A9151CFEF709FE00232B
:102EF0000593049B011CC218009606A805AB01941B
:102F00000295FFF791FA06A90248FEF785FD0AB07F
:102F100070BDC0461CC00200F0B5071C87B0086831
:102F20000D1C00F041FF0190012F07D96C68022FA2
:102F300005D0A86801F022F8071C02E0444C0127E4
:102F40007F420020011C20F05BFE04A9009028684D
:102F5000FEF7D6FD049B051CC6183D4B9C4238D19C
:102F6000B54229D2287808F051FF002824D0013535
:102F7000F6E7002F23D02C1C207808F047FF00280C
:102F800002D10134B442F7D1291C621B01981FF011
:102F900045FF011C009803F0F1FAB44255D2251CFC
:102FA000287808F033FF002802D00135B542F7D168
:102FB000FB17DB1BDB0FFF1AB542DAD345E0291CF8
:102FC000721B01981FF02AFF011C009803F0D6FA2B
:102FD0003BE0201C00F0E8FE019A0290031C201C3C
:102FE000934201D0FEF78CFC05A9FFF703FA059B7D
:102FF0000390002B25D11749174824F02AFEFDF72E
:103000000AF9019BE3189E4209D3201C0399019AF7
:1030100028F0DFF8002803D00134002FF1D1341C50
:10302000291C621B02981FF0F9FE011C009803F096
:10303000A5FAB44209D2059BE518FB17DB1BDB0F91
:10304000FF1A059B2C1C0193E7E7009807B0F0BD21
:1030500044C202004D27030028F80200F0B50C1C02
:103060008BB0022802D8FFF757FF7EE0086800F017
:103070009BFE08A9049020686668FEF741FD009059
:10308000A06800F07BFF431C051C0021181C059361
:1030900020F0B6FD364B041C9E4202D135480AF0A2
:1030A0004BF9301C09A9FFF7A5F9099B0690002BE5
:1030B00005D13149314824F0CCFDFDF7ACF8089A30
:1030C0002F1C9446009B63440293AB000393099B1F
:1030D0000193019A029B9E1A002D0BD0009B9E42E9
:1030E00008D3301C0699019A28F073F8002822D0E2
:1030F000013EF1E7E368BD005E19009A029B049867
:103100009A1A00991FF08AFE3060002F11D0059B9B
:10311000DF1BE368BE005919181C321C28F071F837
:1031200063680021DA1BE3689200981928F07DF8A3
:10313000A760201C19E0039AE36894466344079350
:10314000019B0498F118029B013F9A1B019BD21A24
:103150001FF064FE079B02961860EB175B1BDB0FEA
:10316000ED1A039B043B0393B1E70BB0F0BDC046DF
:1031700044C20200302B03004D27030028F8020050
:1031800010B5041C102020F0C8FD044B84600360BF
:10319000034B43600023C36010BDC04684BB0200E4
:1031A0002D31020013B5041C081C01A9FEF7A8FC70
:1031B000002C07D0012C0BD1019923F001F840001D
:1031C000204306E0019B0348002B02D1024800E0A7
:1031D000002016BD70C10200B4C10200F0B585B078
:1031E000041C081C03A9151CFEF78AFC061C002DF4
:1031F00006D1201C3549039A331C1FF0D5FC63E02F
:10320000011C0022039BC3180093009B99420ED21D
:103210000B78272B04D0223B58424341DBB201E01C
:10322000002301220131002BEFD0272703E02727BD
:10323000002A00D0053F264D201C291C3A1C1FF0F7
:10324000B3FC0195009B9E4239D2301C22F087FFCF
:10325000051C301C22F09EFF061CBD4203D1201C21
:103260001C493A1C28E05C2D02D1201C1A4914E0AC
:103270002B1C203B5E2B02D8201C01991BE00A2D41
:1032800002D1201C154908E00D2D02D1201C144943
:1032900003E0092D04D1201C12491FF0B9FBD1E72E
:1032A000FF2D02D8201C104905E0104B201C1049AE
:1032B0009D4200D90F492A1C1FF076FCC2E7201C52
:1032C00001993A1C1FF070FC05B0F0BDA82703005F
:1032D000CC260300CB260300CF260300D226030012
:1032E000D5260300D8260300DB260300FFFF0000DD
:1032F000462B03004D2B0300F7B51F1C08AB0C1C1D
:10330000161C1D78FB0702D57F1001970EE0381CB4
:1033100001A900F071FE002808D1381C1FF040FF01
:103320001B49021C1B480EF0B1F90DE0019BA019CE
:10333000002B17DA0138A04208D20193002D25D1C5
:10334000154816490EF0A2F9FCF765FF3F210278F7
:1033500001388A43803A511E8A419B18002BEAD1DA
:10336000013014E0002B11D0844203D30193002DCF
:103370000DD1E5E73F2122788A43802A01D101342B
:10338000F8E7002B02D00134013BEDE7201CFEBD25
:10339000542B030018FD020084F902007C2B03006B
:1033A000F0B587B0061C0D1C171C00F0FDFC02A92F
:1033B000041C301CFEF7A4FB061C042F4FD1AB07E6
:1033C00035D1284B2A689A4231D105AB281C03A974
:1033D00004AA1FF0C5FE059B234FBB4204D0032B5C
:1033E00002D0224809F0A8FF039B351CBB4207D03E
:1033F0000122201C0092311C029AFFF77DFF051C60
:10340000049BBB4208D00122201C0092311C029A6E
:10341000FFF772FF021C01E0029BF2180E20AA4285
:103420001ED3521B201C291C1FF0F8FC18E000239F
:10343000311C0093029A2B1C201CFFF75DFF0278C1
:10344000012153B2002B06DA402301211A4202D097
:1034500001315B08FAE70122FEF714FB00E00020CF
:1034600007B0F0BD28C1020044C202005D2703007E
:1034700070B5041C0D1C10491FF0CAFA6968201CA5
:10348000012200F0ABFC0D4E201C311C1FF0C0FAD5
:10349000A968201C012200F0A1FC311C201C1FF097
:1034A000B7FAE968201C012200F098FC201C0449AE
:1034B0001FF0AEFA70BDC046962B0300C625030070
:1034C0001D40030070B5061C10200D1C141C20F0BC
:1034D00024FC034B466085600360C46070BDC04639
:1034E00028C10200F0B593B0061C06A80F1C141CDE
:1034F000FCF776FE051E23D13368311C012603A894
:103500003A1C019302F000F9A3082A1C33400199E8
:1035100003A80DF065F9051C03200FF0D5FA281C4F
:1035200022F0BAFE012040420FF0CEFAFCF76EFE08
:10353000344203D01348311C0FF0FAFA012518E089
:10354000012040420FF0C0FA01210C4202D00D4888
:103550000FF0EEFA079800F027FC0B490AF072FC16
:10356000051E04D10948079900F05CFC01E08025A4
:103570006D0001210C4202D002480FF0D9FA281C3C
:1035800013B0F0BDC82B030048F9020090B9020047
:103590001FB52021684623F09FF8254824F0C0FD80
:1035A000684623F0CEF8234824F0BAFD0FF0A8FABD
:1035B0000128F2D002280AD11F4824F0B1FD684644
:1035C00023F0B4F801221D4B00201A702DE00328CF
:1035D00003D1684623F0B5F8E8E7042804D0C1B267
:1035E000684623F006F9E1E7154824F099FD019AB1
:1035F000002A08D1104824F093FD684623F096F87D
:103600008020400011E0962002994000002300F045
:10361000B1FB002803D10B481EF0C6F9C0E7012119
:103620000A1CFFF75FFFC305BAD505B000BDC04651
:103630009D2B0300204503000847030006010020DE
:10364000B82B0300BB2B030030B587B002A82021A4
:1036500023F042F8444824F063FD444824F060FD20
:1036600002A823F06EF802A8414921F00EFF0128BC
:1036700009D1404824F054FD02A823F057F8002057
:103680003D4B18706EE0022803D13A4824F048FD03
:10369000E0E703281AD0042808D1364824F040FD7A
:1036A00002A823F043F8802040005BE0052825D1E4
:1036B000324824F035FD02A823F043F80FF020FA39
:1036C0006B46C1B2DC1D2170032901D12948C5E731
:1036D000042904D1274824F023FD012427E002A86F
:1036E00023F087F823780D2B03D1254824F018FD0B
:1036F000E4E7201C01210FF01BFADFE702A823F00A
:1037000033F80028ACD002A823F060F802F002FAE7
:1037100000280BD002A80A2123F06BF802A819494F
:1037200021F0B3FE0328D1D00428ECD1002402A854
:1037300023F013F8051C02A823F016F8021C9620AB
:10374000291C4000002300F015FB002803D10E487F
:103750001EF0FCF984E7211C0622FFF7C3FEC30517
:1037600000D47DE707B030BDCA2B03000F2C030047
:10377000352C030008470300060100203A2C030003
:103780006A2C0300712C030047750300064B0139B6
:10379000C9B21970411880310B78044A1370044A79
:1037A000D25C044B1A707047F92D0020FA2D0020CE
:1037B000CA2C0300FB2D0020064B0131C9B2197041
:1037C000411880310B78044A1370044AD25C044BD0
:1037D0001A707047F92D0020FA2D0020CA2C030022
:1037E000FB2D0020074B984204D9074B18184118AD
:1037F000064B03E0064B1818064B4118C918087809
:103800007047C046A4920000502D03005B6DFFFF7F
:103810000F2F03000083FFFF031C20228033F0B52D
:103820001A70CB4B1F3A1A70041C002389B0591C24
:10383000E05C7F23CAB203406F2B01D95F2302E013
:103840005F2B01D94F230340A21880321370CBB2F3
:103850007F2BECD1BF4A1370231C1B22FF331A703D
:10386000E432171C531CDBB203936B46B8491B7B35
:10387000B94D0B70039B2E1CE31880331B782B7003
:103880005B2B06D19B227B1CDBB20B702A70E254AF
:103890002DE02E2B11D10232D2B20A70A218803242
:1038A0001278AC480270AD48825CD20705D47A1C0D
:1038B000D7B22B70E355039AD4E7A64A1370A74AF0
:1038C000D05C820727D4002813D120220B782A70DD
:1038D000E31880331A707B1CDFB20F70782F01D889
:1038E000E255E8E79B23E3556B461B7B33700120D1
:1038F00035E27F229043984A107003D1984A994B41
:103900001A602CE2413B984ADBB29849D25CCB5C0E
:103910001202134300E0964B0593059B0093009B16
:10392000002101339BB2181C0093FFF75BFF0306D5
:10393000F5D5009B05930123029300980299FFF7A8
:1039400051FF029B0133DBB22828F5D1029D0135DE
:10395000EBB20098191C0193FFF744FF019D292841
:10396000F5D10135EBB2191C00980693FFF73AFF29
:103970007F23069D18403D28F3D16A46764B127B83
:103980001870734B039E1A70029B04965D1C714B5A
:10399000EDB21D70A31980331B780098291C079382
:1039A000FFF720FF079B9842B7D10135019A731C9E
:1039B000EDB2DBB2954202D01E1C0493EAE7644BE1
:1039C000039D1E706A46029B0098013BDBB2029386
:1039D000127A604B02991A70FFF704FF5E4E0306DD
:1039E00000D590E07F225A4B18705C4B1B5C9343D0
:1039F000337009D0564B013DEDB21D706319803311
:103A00001B788342DED088E73070202812D023282C
:103A100019D02E281FD0262825D0402841D05E2836
:103A200049D02B2852D03A285FD0524A4D4B002023
:103A30001A6094E1201C291CFFF7A8FE7F2233782E
:103A4000934340D069E7201C291CFFF79FFE337881
:103A50005B0638D461E7201C291CFFF797FE3378FA
:103A60001B0730D459E7201C291CFFF78FFE1022BA
:103A700033781340337026D1354B1B78E1188031F1
:103A800009783170482900D047E7013B3049DBB263
:103A90000B70E31880331B789343432B00D03CE733
:103AA00011E0201C291CFFF771FE0423327813401B
:103AB000337008D131E7201C291CFFF767FE3378EB
:103AC0009B0600D429E7224B1D787BE7204B013D64
:103AD000EDB21D70651980352B78452BF3D010227F
:103AE0009343492B00D018E7EDE7291C201CFFF772
:103AF0004DFE2023184A11780B40137000D161E766
:103B0000134B1D78F1E7049D019B124E0133DBB28C
:103B100001936B461B79069A3370019B934200D147
:103B200005E1191C0098FFF75DFE7F22084B0A4E45
:103B300018700A4B1B5C934333701DD0044B013546
:103B4000EDB21D70631980331B788342DCD0E4E64C
:103B5000F92D0020FA2D0020FB2D0020CA2C030097
:103B6000B62C03001C0000209C2C0300362D030003
:103B7000A5920000C02C0300307020286ED02328AE
:103B800075D02E287BD0262800D180E0402800D197
:103B90009BE05E2800D1A2E02B2800D1AAE03A28C1
:103BA00000D1B6E0252800D03FE76B1C6D4ADBB2A0
:103BB0001370E31880331B786B490B70452B37D19A
:103BC000A81CC0B2231880331B78684E3370684E2F
:103BD000F65CF60900D18AE010700B70522B00D110
:103BE00085E0532B00D182E0442B00D17FE04C2BA9
:103BF00008D10335EDB21570651980352B78592B36
:103C000075D08AE6462B00D087E6EB1CDBB213703A
:103C1000E31880331B780B70552B00D07DE60435FC
:103C2000EDB21570651980352B784C2B5FD074E69A
:103C3000492B00D071E6AB1CDBB21370E318803364
:103C40001B780B704E2B00D067E60335EDB2157074
:103C5000651980352B78472B49D05EE6201C291C3E
:103C6000FFF7AAFD7F223378934340D055E6201C0E
:103C7000291CFFF7A1FD33785B0638D44DE6201CE4
:103C8000291CFFF799FD33781B0730D445E6201C2B
:103C9000291CFFF791FD102233781340337026D191
:103CA000304B1B78E118803109783170482900D0F9
:103CB00033E601332B49DBB20B70E31880331B78FA
:103CC0009343432B00D028E611E0201C291CFFF76A
:103CD00073FD042332781340337008D11DE6201C95
:103CE000291CFFF769FD33789B0600D415E61D4BB0
:103CF0001D7809E71B4B0135EDB21D706519803544
:103D00002B78452BF3D010229343492B00D004E6A7
:103D1000EDE7291C201CFFF74FFD2023124A1178E4
:103D20000B40137000D1EFE60E4B1D78F1E7019DBB
:103D30000098291CFFF756FD7F2303403D2B02D03E
:103D40007A1CD7B2E3556A1CD2B2010605D5064AE1
:103D500035701370049B0393ADE5151CE8E709B0BB
:103D6000F0BDC046F92D0020FB2D0020FA2D0020CB
:103D7000CA2C0300F8B5061C10200D1C141C1F1CB7
:103D80001FF0D8FF011E09D02C190F604D608D6007
:103D9000CC60301C024A034B1FF019FEF8BDC04630
:103DA0007131020087310200084BC2070BD4084A68
:103DB000084B0240062A06D003230340022B01D100
:103DC000054B00E00368181C7047C046E4C10200C0
:103DD000070080FF1CC0020054E00200F8B50D1C73
:103DE000041C161C0EF0C0F8281CFFF7DDFF8768C6
:103DF000031C201C002F03D0291C321CB84703E0F1
:103E000002495A681EF0D0FEF8BDC046FB3E0300D2
:103E100008B5031C0A1C0248191CFFF7DFFF08BD88
:103E200090B90200F7B5051C081C0E1C23F015FF05
:103E300000282AD0301C694601AA0DF0CDFC009B59
:103E4000002B22D0281C16491EF0E2FD009C154BC9
:103E5000E71EE418A400002F17DB019A281C131991
:103E60005B68125910491EF09FFE019B281C1B190C
:103E70009A68002A03D10D491EF0CAFD02E00C49E0
:103E80001EF092FE033F0C3CE5E7281C311C022289
:103E9000FFF7A4FF281C05491EF0BAFDF7BDC04678
:103EA000003F0300FDFFFF3F243F030009470300DD
:103EB000393F030010B5041CFFF776FF054B00697E
:103EC000984203D0431E9841C0B202E0201C22F069
:103ED00064FB10BD49DC000038B5051C0C1C01203A
:103EE0008D4241D0214B9D4201D100203CE09942BE
:103EF000FBD001231D4204D01942F6D12B1C0D1C0E
:103F00001C1C2A1C1A4B1A40062A05D0AA0711D1DC
:103F1000184A296891420DD12340062B05D0A307EA
:103F2000E3D1144B22689A42DFD1281C211CFEF7F2
:103F300011FA19E02340062BD7D0A30703D10D4B6C
:103F400022689A42D1D0281CFFF72EFF8369002BEC
:103F5000CBD01B20291C221C98470028C5D0064B1B
:103F6000C01A42424241D0B238BDC04644C20200EB
:103F7000070080FF1CC0020070C1020008B5104B92
:103F8000984219D00F4A0123904217D0184201D00D
:103F9000184114E0830706D10B4B02689A4202D104
:103FA00003F072FC0BE01FF0FBF80849021C084804
:103FB0000DF06CFBFCF72FF9002000E0181C08BD89
:103FC000B4C1020070C10200E4C10200423F03001C
:103FD00018FD020008B5C30705D4830706D1054BB9
:103FE00002689A4202D11FF054FF01E0FFF7C6FFBA
:103FF00008BDC046E4C1020038B50F4B0124984209
:1040000002D100230B6014E00C4B984201D10C60EC
:104010000FE0031C234002D04010086009E0820733
:1040200008D1074A0568954204D10D1C03F02CFC09
:104030002860231C181C38BDB4C1020070C10200E6
:10404000E4C1020008B5184B984228D0174B98429B
:1040500027D0C30703D5401016F0E8FD23E0032363
:10406000184206D1124A0168914202D11FF01AFF8C
:1040700019E00340022B09D10E4B0340062B05D05B
:10408000FF23DB05C018032398430CE01FF088F8DA
:104090000949021C09480DF0F9FAFCF7BCF80020A8
:1040A00001E0FE20800508BDB4C1020070C102001D
:1040B000E4C10200070080FF5A3F030018FD020020
:1040C00010B583070CD103680A4CA34202D123F038
:1040D000A4FD0EE0084CA34202D11FF0A9FD08E0A8
:1040E0001FF05EF80549021C05480DF0CFFAFCF7F9
:1040F00092F810BD80F7020088CA0200743F0300E6
:1041000018FD020013B50C1C01A9FFF7D9FF019B94
:10411000A34206D00349221C03480DF0B7FAFCF76E
:104120007AF813BD973F030028F80200F7B5051C85
:104130000C1C171C1E1CD30702D55710019710E04A
:10414000101C01A9FFF758FF00280AD1381C6C6821
:104150001FF026F81349031C221C13480DF096FA91
:104160001BE0019B002B08DA1B190193002E0AD0DB
:10417000002B04DA0023019311E0002E03D0A342A8
:104180000DD901940BE0019B002B01DBA34206D368
:10419000064807496A680DF079FAFCF73CF801987F
:1041A000FEBDC046C43F030018FD020084F90200B2
:1041B000E83F030010B5041C830710D10D4B0268C3
:1041C0009A420CD10C4B0340062B03D1C00821F0BE
:1041D0000DFA00E0806801234000184308E0201C2D
:1041E000FFF7E2FD4369181E02D00120211C984709
:1041F00010BDC046D4BF0200070080FF174A70B54B
:104200000023904227D0164CA04201D1012322E086
:10421000144A002390421ED0012606409E4201D03F
:10422000401015E0051CFFF7BFFD4369002B09D0C6
:10423000301C291C9847002804D0031B58424341D6
:10424000DBB208E0281CFFF7B5FF0028DED00138FC
:10425000431E9841C3B2181C70BDC046B4C10200D1
:1042600070C1020044C2020010B5041CFFF7A2FF97
:10427000002809D1201C1EF093FF0449021C0448A9
:104280000DF004FAFBF7C7FF10BDC046FE3F030068
:1042900018FD020070B5041C0D1C161CFFF784FDF0
:1042A000036A002B05D0201C291C321C98470028CB
:1042B0001AD10E4D201C002E05D11EF071FF0C49A5
:1042C000021C281C06E0042E08D11EF069FF021C07
:1042D000281C08490DF0DAF9FBF79DFF1EF060FF7E
:1042E0000549021C281CF5E770BDC04618FD0200F8
:1042F0001F4003004A4003006B40030008B51EF056
:1043000065FF002805D10349034823F0A2FCFBF711
:1043100082FF08BD9840030018FD020008B50B7924
:104320000349002B00D103491EF072FB08BDC046B3
:104330001A7603001276030037B51D1C0023081CF3
:1043400000930C1C111C1A1C013308F0FFFF064BD4
:10435000002C06D02868FFF751FF044B002800D13D
:10436000014B181C3EBDC046B4C1020070C1020022
:104370007FB5012803D108680021FFF749FD02A895
:10438000102122F0A9F902A8094921F07EF8039B27
:104390000193002B06D1042804D1064823F04CFCDD
:1043A000FBF739FF02A90448FDF736FB07B000BD53
:1043B000C92B030048FC02001CC002007FB54B68FB
:1043C0000E1C5C106846211C22F09DF9029D002104
:1043D000281C221C26F029FF01213068014004D14D
:1043E000221C2B1C1FF0F0FC08E0042C00D9042434
:1043F00043100021201C2A1C21F0B7F9694602480D
:10440000FDF70AFB04B070BDD4BF0200F0B5002573
:1044100085B0081C0C1C1E1C111C00952A1C0223B4
:1044200008F094FF0120AC423FD0844228D130688C
:1044300020423AD103230340AB4203D11C4A016816
:10444000914232D01B4A0240062A06D0002B0BD1E3
:1044500003689A69184B9A4206D103A9FDF7CAFF6F
:1044600000220399131C18E00323021C1A40022A9D
:1044700016D1FF22D2058018984303F0D7F914E033
:1044800003A93068FDF7B6FF071C7068039CFFF7AF
:1044900075FD211C021C2B1C381CFCF7C5F904E01F
:1044A000FFF76CFD01234000184305B0F0BDC04686
:1044B000E4C10200070080FFD5290000F0B58DB0EF
:1044C000099214AA1278041C0B9215AA12780F1CD8
:1044D0000892DA0700D494E0181CFFF74FFD002380
:1044E00005900793002803DA434205932D23079391
:1044F000129B0026023B1E2B16D8524B129A2020EC
:10450000995C15F0A5FA089BC5B2B34204D0681CAB
:10451000032115F09DFA061C1398002801D026F0FF
:1045200089FF0335AE1936183B689E4204D9301C0A
:104530001FF0F3FB20603E6023689F190693002361
:104540007D1E2B70059B002B03D1023F30333B7047
:1045500033E00A950598129915F0F0FB0F1C0598A9
:10456000129915F005FB3B1C05903033092F02DD35
:104570000B9B0A3BFB186F1E3B70089B002B16D051
:10458000059B002B19D0069B9F4216D90A9BDB1B6B
:10459000032B01D03D1CDDE76B4620229B181B78C6
:1045A000AF1E3B70069B9F4207D90A97F2E7069B16
:1045B0009F4202D9059B002BECD1139B002B0ED000
:1045C000181C26F037FF069B381A984207D900239B
:1045D000139AD25C002A2ED0C2540133F8E7079B0D
:1045E000002B06D0069B9F4203D96B461B7F013FE1
:1045F0003B702368381C9E19F61B099B013E1E6008
:104600001EE09A0710D1104A196891420CD1129AF3
:10461000391C0092139A01920B9A0292089A039203
:10462000099A1FF0A8FB0BE0002322681370099A77
:104630002068136004E0079B071C002BD5D1D8E746
:104640000DB0F0BDBD400300E4C1020010B50C1C6C
:104650001449031C8A4202D1211C01221EE0124986
:104660008A4202D1211C032218E00020072B17D117
:104670000E4B1340062B0ED0930711D113680C4933
:104680008B4208D00B498B4205D00B498B4202D09C
:104690000A498B4204D1111C0720221C08F02CF976
:1046A00010BDC046B4C1020070C10200070080FF07
:1046B0001CC00200D4BF020080F7020088CA0200BA
:1046C000054B002805D00023022802D101224B000F
:1046D0001343181C7047C046B4C1020008B5024914
:1046E0001EF096F908BDC0460B7603008022044BED
:1046F00052001A600123034A1360034A1360704793
:1047000000E100E00C8C0040008000408022054B5E
:104710005200DA67044BFF3A5A600022034B1A60DA
:104720007047C04604E100E0008000400C8C00406F
:1047300038B501251D4B1E4C18601E4BE550C04678
:10474000FFF7E4FF1C4A1D4BE560E2500023022105
:104750001B4AC220A3500432A15049180832A1506C
:104760008021C12209039200A150053AFF21FF3A9E
:10477000A3504024134B80001A588A4322438024BC
:104780001A500C301A5824061202120A22431A50E8
:1047900004301A588A433F390A431A5080221204BF
:1047A0001A60802252041A6038BDC04654010020AD
:1047B00000800040FC0F0000701700004C05000056
:1047C0000405000000E100E038B5224C224D636C86
:1047D000002B0AD000236364204B1B689847A82253
:1047E000D200AB580001C018A850A36C1A4D002B82
:1047F0000AD00022174B9A64184B5B689847184AF6
:104800000001AB58C018A850E36C134D002B0BD01F
:104810000022104BDA64114B9B689847A922D20002
:10482000AB580001C018A850236D0B49002B0FD0C6
:104830000022084B0B481A650B4A8B581B188B50EB
:104840000A4A1368063313608022094B12045A6027
:1048500038BDC046FC8000400080004004000020BD
:1048600044050000701700004C050000FC2C0020DF
:10487000FCE100E0F7B50191032824D8134B800038
:10488000C758C2230125124C9B00E75003191D6431
:10489000A825ED005E59B4460E4EA659921B6244FF
:1048A000D117090F8C4662441211013200920A4955
:1048B000019A4250C121009A89001201B61867502E
:1048C00000205E5101E001204042FEBD84C2020092
:1048D000008000404C0500000400002003280BD895
:1048E000074B8000C158C223064A9B00D150064A9C
:1048F000064BC250002001E0012040427047C046F4
:1049000084C2020000800040BF3202000400002088
:1049100008B5024B1B68984708BDC04654010020EB
:1049200010B50024054AA358002B02D00021A15045
:1049300098470434102CF5D110BDC0465801002012
:10494000074A89008B58002B06D188508021054AE0
:1049500049045160181C01E0012040427047C046E4
:1049600058010020FCE100E0F7B501911149041C59
:10497000171C00251EF04CF87B689D4214D2002DB8
:1049800003D0201C0C491EF043F8019BAE009A593D
:104990000A49201CBE191EF007F9201CB16801222B
:1049A000FFF71CFA0135E7E7201C05491EF030F837
:1049B000F7BDC0469B2B0300C6250300DE40030065
:1049C0001D400300004870470CC3020013B5041CCF
:1049D000A06807F051FF019000280ED06368074AD5
:1049E000934205D0181C0121002201AB07F0FCFD09
:1049F000FFF704FC0028EBD0019816BD44C202006A
:104A00000F22114008B5031C081E03280ED815F00C
:104A100001F80204090D181C0BE00648002B08D110
:104A2000054806E0181C1FF0F7F902E0181C1FF0FB
:104A30000EFA08BD70C10200B4C1020010B588B002
:104A4000694601AA041C0CF0C7FE009B022B2AD960
:104A500004A8322102AA09F055FF019B13495A68A4
:104A600002A81EF0A1F8201CFFF79EF9104BC268A7
:104A70009A4210D1236802A85A680E491EF094F891
:104A8000E368002B07D05A68002A04D002A899686E
:104A90000022FFF7A3F904A821F098FE0EF090F889
:104AA00004A821F043FE08B010BDC0461C4103001D
:104AB000751501002541030070B5051C90B0002854
:104AC00003D11F481DF042F838E004A8FBF788FB2B
:104AD000041E19D12E6801A8291C012200F014FE21
:104AE000221C231C311C01A80BF07AFE041C03209D
:104AF0000DF0EAFF201C21F0CFFB012040420DF019
:104B0000E3FFFBF783FB19E0012040420DF0DCFFDF
:104B100005990C48FFF786F90598FFF745F90A490A
:104B2000041C09F08FF9002808D1201C074909F05E
:104B300089F9002802D10598FFF780FF10B070BDF9
:104B40002941030090B9020048F90200E0F7020091
:104B500037B5294B01AA1A600DF0E0F9E120C00039
:104B60000DF0F0F9254B2648C11803F065F807F061
:104B700025FC0DF087FF06F0DDF80FF0ADFE0023F9
:104B8000204CA367204B1A781D1C012A1FD1F82343
:104B90009B021A784D2A07D15A78502A04D1598895
:104BA0001A481EF0C6FB12E0002219480721131C08
:104BB0000AF094F8002802D01EF0C6FB07E0A620F9
:104BC00014490122400008F0EFFA21F08DFB2B7808
:104BD000002B0ED1FEF7DCFC0028F8D00E4823F0A5
:104BE0009FFA00230D4A53601360636721F050FB66
:104BF00037BDFEF729FDEFE744270020DC25000044
:104C000068010020882E00200601002004E0030037
:104C100056410300BCF702005E410300F42E002061
:104C200007B503F095F8054B01A81968091A89081A
:104C300003F048F803F0A0F807BDC0464427002061
:104C40000023820708D10268044901338A4203D055
:104C5000034BD31A5A425341181C7047A8C502008F
:104C600070C4020070B5061C0D1C0124B44206D2AB
:104C7000A3002868E9581EF07DFB0134F6E70148DF
:104C800070BDC04644C2020010B5041C10201FF0C5
:104C900044F8044B84600360034B43600023C3600B
:104CA00010BDC04684BB02005334020038B5051C59
:104CB00010201FF032F8041C074B696808C01FF071
:104CC00011FAAB68E968A3606B68E0689A0026F0A7
:104CD0008FFA201C38BDC046A8C502000023F7B5D6
:104CE000041C0D1C01938B0705D10B68224FDF1BA1
:104CF0007A427A410192AB68002B09D1019B002BCB
:104D000003D0201C1D491DF083FE201C1C492FE0F0
:104D1000019B002B03D0201C1A491DF079FE201C9A
:104D200019491DF075FE002601236A68964216D2C5
:104D3000B200171CEA68D259002A0ED0042A0CD0FF
:104D4000002B03D1201C11491DF062FEEB68201CD2
:104D5000D9590122FFF742F800230136E5E7201C6C
:104D60000B491DF055FE019B002B03D0201C094967
:104D70001DF04EFEF7BDC04670C402006C4103003A
:104D80007341030079410300D0250300C6250300C9
:104D90006B4903001D40030008B5FFF751FF0028D1
:104DA00005D1034903480CF071FCFBF734FA08BD48
:104DB0008441030018FD020038B50D1C041CFFF7E8
:104DC000EBFF281C07F00AFD051C281C07F054FD0A
:104DD000011E07D0201D00221FF08EF90028F4D0FC
:104DE000014800E0014838BDB4C1020070C10200B2
:104DF00008B583070BD10368084A93420DD0084ACF
:104E0000934204D10749084822F023FF03E00748F2
:104E100007490CF03BFCFBF7FEF908BDA8C50200F2
:104E200070C402009A4103004CFB020018FD02000E
:104E30008441030038B50D1C041CFFF7D9FF281C62
:104E400007F0CCFC051C281C07F016FD011E04D041
:104E5000201D03221FF050F9F5E7014838BDC04678
:104E600044C2020038B50D1C041CFFF7C1FF291C09
:104E7000201D01221FF040F9004838BD44C2020045
:104E800038B50D1C041CFFF7B3FF291C201D02229E
:104E90001FF032F9004838BD44C2020010B5041CAE
:104EA000FFF7A6FF201D1FF0B0F9014810BDC04656
:104EB00044C2020008B501221EF095FA004808BD60
:104EC00044C2020038B5041C0D1CFFF791FF201DE1
:104ED000291C02221FF010F9002804D1034822F0F7
:104EE000ABFEFBF798F9024838BDC04608FE020049
:104EF00044C2020010B5041CFFF77AFF201D1FF00A
:104F000066F9002805D10349034822F0A2FEFBF709
:104F100082F910BDBC41030008FE0200F8B501286B
:104F20000AD0002802D002280AD029E08B68154850
:104F3000002B26D1144824E08B685B00184320E046
:104F4000032500200D4085421BD10C680F4B281C07
:104F50009C4216D10E1C4F68BD420DD0F268AB00CA
:104F60009958002906D0042904D0022007F0D2FA6B
:104F7000401024180135EFE701206400204300E0D1
:104F80000020F8BD70C10200B4C1020070C402006C
:104F9000F7B5071C102001911EF0BFFE051C0A4B3F
:104FA000061C08C5281C391C1FF09CF80024BC42B4
:104FB00008D0019AA300D158281C01221FF09CF8A8
:104FC0000134F4E7301CFEBDA8C50200F7B5051C8E
:104FD0000E1C171E05D0FFF70BFF1A4CB54209D166
:104FE0002EE0FFF7D9FEB54204D1281C1EF0D3F9FC
:104FF000041C25E00020011CFFF7CAFF041C301C24
:1050000007F0ECFB0190019807F036FC061E0BD070
:10501000281D311C00221FF06FF80028F3D0201C3F
:10502000311CFFF71FFFEEE7002F09D0E8681EF0E4
:105030009BFE63686B60A368AB60E368014CEB6048
:10504000201CFEBD44C20200F0B585B0041C0390D4
:10505000029101920027FFF7F3FDB84207D13A1CF5
:105060002048012103AB1EF019FA041C0137029DF0
:105070000026281CFFF7E4FDB04207D1321C194876
:10508000012102AB1EF00AFA051C0136019B002B20
:1050900005D0A368AA68934201D1002310E0201C28
:1050A000FFF7F2FD019001981EF0D3F9011E06D022
:1050B000281D00221FF020F80028F4D1EDE701237D
:1050C0000193002F02D0201CFFF7E8FE002E02D033
:1050D000281CFFF7E3FE019B0348002B00D1034887
:1050E00005B0F0BDA8C5020070C10200B4C1020045
:1050F00037B5009101921F2850D8151C0C1C14F0D4
:1051000089FC10151A4D4D4D1F4D4D4D4D4D4D10F7
:10511000151A4D4D4D1F4D4D4D4D4D24272C393EEB
:105120004D43081C111C1EF040F938E0081C111CEE
:105130001EF049F933E0081C111C1EF0A4F92EE002
:10514000694602201EF080F929E0081C111C00E0CD
:10515000101C0122FFF778FF21E0081CFFF71CFE5E
:10516000281CFFF76DFD031E0D4818D0A368AA6820
:10517000934214D1201C291C1EF0C1F90FE0081C19
:10518000111C1EF0B4F90AE0081D111C00221EF0CB
:10519000B3FF031E034802D1014800E000203EBDDA
:1051A000B4C1020070C10200F0B5151C42688FB096
:1051B000944606938369CA6802938B68826063444D
:1051C0005A1C42601A78041C01929A1C4260DA1C34
:1051D0005F7842609A78059104921A1D4260DB78EC
:1051E00000210393031C1833C360029B03339B000D
:1051F000C31804330361029B1C309B001A1C0793E5
:1052000026F013F8149AAB00D3180B93029B049A60
:10521000DB1B08939B1A05339B00E3181E1D01221C
:105220000199BD420FD9114203D1834883493A1CE9
:105230002CE01E1C149BB900E81B59180CF082F8D6
:105240003D1C706027E0114202D01E1C7C4B736035
:10525000069B002B1FD1019B1B071CD4039BFA1A32
:10526000954211D3D91B8B009C462A1CBA4212D2FC
:10527000614693005818059901320818079900698A
:10528000CB1AE3189861F1E76B486C492B1C0CF0C2
:10529000FDF9FAF7C0FF0022AA4208D01499079836
:1052A0009300C958C31AE31899610132F4E7069BC9
:1052B000002B03D1019B1B0700D494E00223019A29
:1052C0001A4000230A920793002A04D006981DF082
:1052D00016FD079030600026A3680B9D0993069B7E
:1052E0009E4228D000222968049BDB199A4215D2DD
:1052F00009989300C35899420ED1029B013B9B1A17
:105300009B00E318DA69002A03D0CA084A484D49CD
:1053100066E06A68DA610BE00132E5E70A9B002B80
:1053200002D14548484963E007986A681DF020FDAE
:1053300001360835D3E7089B03989A1D039B92001A
:10534000D91CA218059B043289005918131C002887
:1053500008D01D68002D01D10D681D60013804338F
:105360000439F4E7039B9B00D318029A063292009B
:10537000A2180432934209D20433191F0968002984
:10538000F3D1D21A92102C48304929E0089B099A8F
:105390009D00BB00D31865190693002610E0039BFF
:1053A000059904339B0058580699B3000430C95836
:1053B00003F03EF800280CD04368AB610136043D91
:1053C000049B9E421ED2AA69002AF7D1019B1B07AB
:1053D000E5D4F619099BB600F25817481C49D208C3
:1053E0000CF054F955E7049B002B04D012481949DE
:1053F00022F02FFC4DE7019B9B0703D504981DF07D
:105400007EFC306065680DA825600D951EF07CF867
:105410002E180136731E1D78FF2D09D0029B013B0B
:105420005D1BAD006519E869FBF7E0F9E861F0E79D
:1054300066600FB0F0BDC04618FD0200D241030007
:10544000BCF702000B4203003A4203006342030030
:1054500095420300C54203009F230021024A5B00DE
:105460000248D1527047C046882E002044C2020034
:105470009F230121024A5B000248D1527047C04677
:10548000882E002044C202009F23044A5B00D35AA6
:105490000348002B00D103487047C046882E0020E7
:1054A00070C10200B4C1020008B5FFF7B9FB0148A2
:1054B00008BDC04644C2020008B503480968FEF7AB
:1054C000B1FC024808BDC04690B9020044C20200C7
:1054D0000D4B73B530CB161C012804D94D682C1C1C
:1054E000022800D08C68086801A9FCF783FF011C22
:1054F0002C20019A0023FF30FEF73CFC311C2A1CB3
:10550000231C07F0CFFE76BD882E0020002313B5A4
:10551000046A00930A05A16B024C920C12591EF00A
:1055200076F813BD5CC70200F0B51C7887B07C2C00
:1055300006D185686D5C002D02D09A2D00D0DEE08A
:105540000393231C6B3B02920091071C022B29D86A
:1055500084687D6860180378032B00D0ACE004A950
:105560001EF048F96319984200D19EE00378032B9E
:1055700000D0A1E005A91EF03DF9039B1B786B2B21
:1055800003D1049B059A13430AE06C2B03D1049BBF
:10559000059A534004E06D2BE4D1059B049A134017
:1055A0000493DFE76E2C04D00223221C9A43702A56
:1055B00063D1009BBE68F0187B6801930378032BCE
:1055C0007AD104A91EF016F9051C019BF3189D421F
:1055D0006BD0AB78A81C6C78032B6DD105A91EF09D
:1055E00009F9051C372C0ED1059A1F2A64DC4549A0
:1055F000049B11418B425FDCC021090611418B42A3
:105600005ADB934009E0392C09D1059B1F2B01DDA2
:105610001F230593049B059A1341049328E02F2C24
:1056200003D1049B059A9B18F7E7302C03D1049B08
:10563000059A9B1AF1E7312C09D10498059904F0D9
:10564000E9FD002838D1059B049A5343E5E7332C44
:1056500032D00599352C05D100292DD004981FF0A2
:1056600018FE04E0002927D004981FF022FE0490C1
:10567000049B5A005340A8D51EE0752C1CD18368AA
:10568000009A981883784478032B15D102301EF0C5
:10569000C0F82F2C08D0302C05D140424300049094
:1056A000584002D508E0C0430490009B381C7B6042
:1056B00004991DF0DCFF22E000267B68009A029C22
:1056C0009D1A0136E409FCD12B1C0134DB09FCD105
:1056D000731C1A19381C0099019321F09FF8071CBC
:1056E000039B311C1B78029A1A33037001301DF0A2
:1056F0003AFF019B211CF8182A1C1DF034FF07B04B
:10570000F0BDC046FFFFFF3FF0B597B00990C02045
:10571000002540230AAC80000F1C161C2570636016
:10572000A5601EF007FB2561E0606561A561E5618C
:105730002762E562A84202D1BF48C049C0E1331EDA
:1057400003D00423022E00D0033B0026BC4A9B005A
:105750000096201CB96B9A58331C1DF058FF10207E
:105760001EF0DBFA1021041C20F0B6FF0AADAB6876
:10577000002B00D181E12A78002A00D07DE1013B95
:105780000C32AB605343EA68AD49D318DA785D68F0
:105790009200525803921A689B681202120A0493EC
:1057A000039B06925B7807930F23079A1A40059292
:1057B000002D01D1636804933023079A1340102B06
:1057C00002D0202B40D0F4E0002D03D0002E01D1D8
:1057D0000026CBE7039B6A009A18059B9D4231D2B5
:1057E0005388190B012916D1391C403109781B0542
:1057F00002321B0D994221D10AA8211C1DF06CFF19
:105800000028E5D13B1C40331B78062B00D04CE12F
:105810008C488D4954E1059A6B1C934206D2049A38
:105820000AA800920699039A1DF0F1FE039B6D00F1
:105830005D1969880AA8FFF769FEC9E70135CCE759
:10584000012DDFD8012691E7002E0BD0039A6B00C3
:105850009B5A1B0B032BF3D1201C012120F0A4FF2A
:1058600000230370039B6E009E191AE073881A0BC5
:10587000012A29D13A1C40321278DBB29A4220D157
:10588000082A07D1B96CF86C05F014FE011C201C25
:105890001DF0B3FE002D08D0381C1EF0F6F80135BF
:1058A0000236059B9D42E1D310E0039B5B787F2B82
:1058B000F2D90E9B201C591C07930E911DF0D7FEA8
:1058C000EAE7002DBED09DE76B1CA8E700231E1C55
:1058D000059A93420CD203995A008A185288110BE8
:1058E000012903D1D2B2072A00D901260133EFE7FB
:1058F000A368049A981800230793A2686368D318D2
:10590000984206D2079B0121013307931DF04BFEFD
:10591000F3E7039B1B781F2B01D02E2B00D1012610
:10592000039B597840230B40181C4342434149B222
:105930005B421E40002900DA01260025049B0595E4
:10594000D0180895079B9D420FD0059A0378013225
:105950000592002B04D0089B013308930023059384
:1059600001211DF020FE0135ECE7002E02D1089B3D
:10597000012B04D0201C059920F083FF76E0A2685B
:10598000049B944663441D1C079B9E4200D11FE765
:105990002B78002B06D1A368201CE91A012220F0E5
:1059A0007EFF04E0281C01211DF0FDFD051C0136D1
:1059B000EAE7002E1FD0059B022B03D10023012D07
:1059C00045D13FE7012D00D13CE701232A1C1A40B5
:1059D0003CD0059A032A3AD014E73A1C0899403281
:1059E00012780905090D8A4217D1002B10D0381CF6
:1059F0001EF04BF801350123079A039913402B4001
:105A00005A008A1852880892120B012AE5D006E043
:105A10000AA8211C1DF060FEECE70135CBE7049AD3
:105A20000AA8009206996B1C039A1DF0F0FD0AA8C3
:105A30000899FFF76BFD99E6A8F80200FB42030006
:105A40005CC7020010FB020023430300131C079AEB
:105A5000691ED20705D5039A9288120B012A00D13C
:105A60006908012902D1002B00D1B1E6201C04995C
:105A7000069A039BFFF758FDAAE62B78002B00D06F
:105A80005AE63B1C40331E78002E00D0BAE663680D
:105A9000002B00D1B6E62B69201C591C1DF0E7FD38
:105AA000A3686B62EB69AB620FE0022B02D1144872
:105AB000144905E00B3B14481449012B00D9144943
:105AC00022F0C7F80023061C13930D981EF04CF922
:105AD000002E0BD0301C3968BA6B00230BF044FE4B
